:020000040000FA
:060000000A128A110C280F
:10000800FE00030EF1000A08F2000A128A111728EE
:100018000A128A110F28F501F601F701F801830188
:100028000A128A11D6280B188B1D21280B10780864
:10003800031D2128F801F80A8B11831203138C1D64
:100048004F281412141B2A28941F32281308F00072
:100058007008F5001413941314164D28831603130F
:10006800941E141D4D28831203131308F000700802
:10007800F500831603131410831203130508930065
:1000880014165330F000F00B472883160313141886
:10009800492883128C1172088A00710E8300FE0EA3
:1000A8007E0E09007803031D79287708031D792837
:1000B80083120313061A79285A30F4009B30F30090
:1000C800F30B6428F40B6428831203130508FF3E1E
:1000D8008500050803197428C9300502031C752812
:1000E8008501F801F701F70A8B157703031D08004E
:1000F80083120313061E08005A30F4009B30F300E5
:10010800F30B8428F40B8428F70108007803031DF7
:10011800AB287608031DAB2883120313861AAB2875
:100128005A30F4009B30F300F30B9828F40B98280E
:10013800831203130508013E85000F300502031CD6
:10014800A7280F308500F801F601F60A8B1576030B
:10015800031D080083120313861E08005A30F4009A
:100168009B30F300F30BB628F40BB628F601080011
:10017800F3007308831603139300363083120313B6
:100188009400803083160313940001309100871582
:1001980007168B170B17831203138C11831603137F
:1001A8008C1508000A128A11ED200A128A118B1781
:1001B80070300A128A11BC200A128A110A128A1196
:1001C8008A200A128A110A128A1156200A128A11E2
:1001D800E228831603138501303086008312031347
:1001E80085018316031788018901303083160313AC
:0C01F80095008113303096008B15080034
:04400E00D4E0FFFFFC
:00000001FF
