:020000040000FA
:060000000A128A110C280F
:10000800FE00030EF0000A08F1000A128A11A22865
:100018000A128A110F28F401F501F60183010A1268
:100028008A1191287603031D39287508031D39287C
:1000380083120313061A39285A30F3009B30F20052
:10004800F20B2428F30B2428831203130508FF3E20
:100058008500050803193428C9300502031C352812
:100068008501F601F501F50A8B157503031D0800D6
:1000780083120313061E08005A30F3009B30F20067
:10008800F20B4428F30B4428F50108007603031DFE
:100098006B287408031D6B2883120313861A6B28B8
:1000A8005A30F3009B30F200F20B5828F30B582813
:1000B800831203130508013E85000F300502031C57
:1000C80067280F308500F601F401F40A8B157403D4
:1000D800031D080083120313861E08005A30F3001C
:1000E8009B30F200F20B7628F30B7628F401080017
:1000F80083160313850130308600831203138501AC
:10010800831603178801890130308316031395007D
:100118008113303096008B1508000A128A117C2052
:100128000A128A118B170A128A114A200A128A1196
:100138000A128A1116200A128A1197280B188B1D89
:10014800AC280B107608031DAC28F601F60A8B11B3
:0E01580071088A00700E8300FE0E7E0E0900F4
:04400E00D4E0FFFFFC
:00000001FF
