:020000040000FA
:100000000A128A11E82F00308A000408840A820745
:100010000034533431343A342034203453343234BD
:100020003A34203420342034533433343A340034D6
:0600300030347834003486
:100464000A128A11582283160313111408000A125F
:100474008A11582283160313111508000A128A11CF
:10048400582270088312031393000800640080014B
:10049400840A0406031900340406492A1434003477
:1004A4000234003417340034013400348316031347
:1004B4001419582A11081F3903190800582AF10081
:1004C4008312031307147108880087140D30F00099
:1004D400F00B6A2A83120313871008007E088A002F
:1004E4007F08820070220A128A118000840A04089C
:1004F4007D0603190034FF0A0319FE0A742A00302A
:100504000A128A1132230A128A1101300A128A113C
:1005140032230A128A110630F4003030F300F30B50
:10052400912AF40B912A00000800F401F501701CD3
:10053400A12A7208F4070318F50A7308F5070130B5
:100544000310F20DF30DFF3E031DA22A0130031028
:10055400F10CF00CFF3E031DA92A70087104031D61
:10056400992A7508F1007408F0000800F400F201FB
:10057400F3017208740784000A128A1103200A1214
:100584008A11003A031908007208740784000A12D9
:100594008A1103200A128A110A128A1161220A128C
:1005A4008A110130F2070318F30A0030F307BB2A5B
:1005B400F600F52A7308803EF4007408F700770803
:1005C4000A128A11322308007308C03EF40074082A
:1005D400F70077080A128A113223080080300A12C1
:1005E4008A11322308007608F400F5017508003AF0
:1005F4000319FD2AF02A7408013A0319DC2A033A84
:100604000319E62AF02A08000A128A1158220A124B
:100614008A118316031391150A128A1158220A1299
:100624008A11831203131308F200F3017208F40011
:100634007308F5000A128A1158220A128A117003EB
:100644007104031D292B8316031391122C2B83167B
:100654000313911611167508F1007408F0000800D0
:10066400F2008312031307100730F1007D30F0000D
:10067400F00B3A2BF10B3A2B831203138714073038
:10068400F1007D30F000F00B452BF10B452B720887
:100694008312031388000730F1007D30F000F00B63
:1006A400512BF10B512B8312031387100730F100E8
:1006B4007D30F000F00B5C2BF10B5C2B0800283034
:1006C40083120313940083160313910183120313FB
:1006D4002008A4002108A5002208A6002308A700DA
:1006E40002300310A40DA50DA60DA70DFF3E031D9A
:1006F400732B2708F3002608F2002508F1002408CC
:10070400F0000030F7003D30F6000930F50000300D
:10071400F4000A128A1135247008FF3E831603136D
:10072400930094018715071608000A128A113222D1
:100734000A128A11D030F0000030F1000A128A1136
:1007440040220A128A111130F0000030F1000A121E
:100754008A1140220A128A110A128A1139220A12B3
:100764008A110A128A1132220A128A11D130F00037
:100774000030F1000A128A1140220A128A11003054
:10078400F000F1000A128A1106230A128A11700875
:10079400F6007608F8000030F000F1000A128A1121
:1007A40006230A128A110A128A11392278080800CB
:1007B40083120313A101F71FE62BF609F709F60AC2
:1007C4000319F70AA101A10AF91FF12BF809F90984
:1007D400F80A0319F90A0130FA007A08A106A201FD
:1007E400A301760877040319282CA001A00AF71B9B
:1007F400072C01300310F60DF70DFF3E031DFC2BF3
:100804000130FA007A08A007F92B01300310A20D79
:10081400A30DFF3E031D082C77087902031D142C39
:1008240076087802031C1D2C7608F8027708031C4E
:10083400F903F902221401300310F70CF60CFF3E01
:10084400031D1E2C0130A002031D072C21080319CF
:10085400302CA209A309A20A0319A30A2308F7004A
:100864002208F60008000030FC000030FB000030D5
:10087400FA000030F900730872047104700403195B
:100884008A2CFD01FD0AF31B552C0130F8000310DE
:10089400F00DF10DF20DF30DF80B492C0130F800B9
:1008A4007808FD07452C0130F8000310F90DFA0D06
:1008B400FB0DFC0DF80B572C73087702031D6C2CF1
:1008C40072087602031D6C2C71087502031D6C2CD2
:1008D40070087402031C7D2C7008F4027108031C58
:1008E400710FF5027208031C720FF6027308031CE1
:1008F400730FF702791401300310F30CF20CF10CAE
:10090400F00CFF3E031D7E2C0130FD02031D552C0F
:100914007C08F3007B08F2007A08F1007908F00003
:100924000800F200BA2C3030B62C3130B62C3230FC
:10093400B62C3330B62C3430B62C3530B62C363099
:10094400B62C3730B62C3830B62C3930B62C413072
:10095400B62C4230B62C4330B62C4430B62C45303D
:10096400B62C4630B62CD630F0007008F300F42CC8
:100974007208F000F1017108003A0319C22CB52C79
:100984007008003A0319952C013A0319972C033A7D
:100994000319992C013A03199B2C073A03199D2C2E
:1009A400013A03199F2C033A0319A12C013A0319A4
:1009B400A32C0F3A0319A52C013A0319A72C033AC7
:1009C4000319A92C013A0319AB2C073A0319AD2CCE
:1009D400013A0319AF2C033A0319B12C013A031954
:1009E400B32CB52C730808001A30F400F830F30067
:1009F400F30BFA2CF40BFA2C000030300A128A1193
:100A040032230A128A110730F4007D30F300F30B0D
:100A1400092DF40B092D30300A128A1132230A12DF
:100A24008A112130F300F30B152D30300A128A118C
:100A340032230A128A112130F300F30B1F2D3830B0
:100A44000A128A1132230A128A111130F300F30BAD
:100A5400292D000008300A128A1132230A128A1141
:100A64001130F300F30B342D000001300A128A1107
:100A740032230A128A110430F400E430F300F30B39
:100A8400412DF40B412D000006300A128A11322345
:100A94000A128A111130F300F30B4E2D00000C30B2
:100AA4000A128A1132230A128A111130F300F30B4D
:100AB400592D0000080083120313B2002B30840068
:100AC4000630FF0083138001840AFF0B642D643019
:100AD400F6000030F7003208A400A5012408F8004D
:100AE4002508F9000A128A11DA230A128A117708F2
:100AF40083120313AC007608AB002B08A40024086F
:100B0400B1000A30F6000030F7003108A400A50156
:100B14002408F0002508F1009C30F200FF30F300B7
:100B24000A128A1197220A128A11831203133208B5
:100B34007007F80071080318710AF9000A128A1183
:100B4400DA230A128A11770883120313AE00760897
:100B5400AD002D08A4002408AA003108A400A501B2
:100B64002408F0002508F1009C30F200FF30F30067
:100B74000A128A1197220A128A1183120313320865
:100B84007007A60071080318710AA7002A08A800B4
:100B9400A9012808F0002908F100F630F200FF301E
:100BA400F3000A128A11972270088312031326078E
:100BB400AF0071080318710A2707B0002B30080032
:100BC40083120313A000213084000630FF00831336
:100BD4008001840AFF0BE92D2008F800F901780848
:100BE400F0007908F1007708FA00FB017A08F200B6
:100BF4007B08F3000A128A1197220A128A117108DB
:100C040083120313A8007008A7007608F800F901FE
:100C140079082802031D102E78082702031C222EAF
:100C24002108013EA10022080318013E003EA20053
:100C340076082702A7002808031C2803A800072E0B
:100C44002808F1002708F0000A30F2000030F30011
:100C54000A128A1197220A128A1171088312031345
:100C6400A8007008A7007608F800F901790828029E
:100C7400031D3E2E78082702031C502E2308013E34
:100C8400A30024080318013E003EA40076082702AE
:100C9400A7002808031C2803A800352E2808F10003
:100CA4002708F0000A30F2000030F3000A128A111B
:100CB40097220A128A11710883120313A80070087C
:100CC400A7007608F800F90179082802031D6C2EA4
:100CD40078082702031C7E2E2508013EA50026085D
:100CE4000318013E003EA60076082702A700280844
:100CF400031C2803A800632E213008008316031365
:100D04008801071087100A128A11F6240A128A1120
:100D14000A128A1181220A128A11F301F30A01309C
:100D24000A128A11DA220A128A1101300A128A116D
:100D3400B8220A128A11063083120313B30033084F
:100D4400F30002300A128A11DA220A128A111030D0
:100D54000A128A11B8220A128A110030831203136C
:100D6400A3000130A2008630A100A030A0000A1226
:100D74008A1161230A128A110A128A1132220A1272
:100D84008A116130F0000030F1000A128A11402209
:100D94000A128A110030F000F1000A128A110623A7
:100DA4000A128A11700883120313B3003308CD00AA
:100DB4000A128A1139220A128A110D30831203137E
:100DC400B400FB30B300B30BE52EB40BE52E0A12CE
:100DD4008A1132220A128A117130F0000030F100B7
:100DE4000A128A1140220A128A110030F000F1001E
:100DF4000A128A1106230A128A1170088312031335
:100E0400B3003308CC000A128A1139220A128A115B
:100E14000D3083120313B400FB30B300B30B102F57
:100E2400B40B102F0A128A1197230A128A11831203
:100E34000313B3003308B70037088039B30033080D
:100E4400B6000B30B3003308F30002300A128A11E3
:100E5400DA220A128A118312031336080319342F73
:100E64002D30352F20300A128A1161220A128A117C
:100E74008312031337087F390A128A115D250A1277
:100E84008A1183120313B3003308CA004A08023ECE
:100E94008400831300080A128A1193240A128A1107
:100EA4000A128A1161220A128A11831203134A0850
:100EB400043E8400831300080A128A1193240A1240
:100EC4008A110A128A1161220A128A11DF300A1267
:100ED4008A1161220A128A1143300A128A1161228C
:100EE4000A128A11FF3083120313B3003308F60089
:100EF4000530B4003408F7004D080A128A11E225BF
:100F04000A128A1183120313B5003508CB00F301CA
:100F140002300A128A11DA220A128A118312031386
:100F24004B088400831300080A128A1193240A12BE
:100F34008A110A128A1161220A128A112E300A12A7
:100F44008A1161220A128A11831203134B08023E8A
:100F54008400831300080A128A1193240A128A1146
:100F64000A128A1161220A128A11831203134B088E
:100F7400043E8400831300080A128A1193240A127F
:100F84008A110A128A1161220A128A1156300A122F
:100F94008A1161220A128A11083083120313B300E2
:100FA4003308F30002300A128A11DA220A128A1173
:100FB400831203134C080A128A1193240A128A1109
:100FC4000A128A1161220A128A11BE2E8313563024
:100FD400FD000230FE005030FF004E3084000A1243
:100FE4008A1174220A128A11383084004E300A128F
:0C0FF4008A11482283010A128A11802E03
:04400E00D4E0FFFFFC
:00000001FF
