:020000040000FA
:100000000A128A11EB2F00308A000408840A820742
:100010000034533431343A342034203453343234BD
:0A0020003A340034303478340034F0
:1007AE000A128A11ED2383160313111408000A127C
:1007BE008A11ED2383160313111508000A128A11EC
:1007CE00ED2370088312031393000800831603139E
:1007DE001419ED2B11081F3903190800ED2BF10028
:1007EE008312031307147108880087140D30F0006C
:1007FE00F00BFF2B831203138710080000300A1230
:10080E008A11B6240A128A1101300A128A11B624EC
:10081E000A128A110630F4003030F300F30B152C57
:10082E00F40B152C00000800F401F501701C252CAA
:10083E007208F4070318F50A7308F5070130031060
:10084E00F20DF30DFF3E031D262C01300310F10CAB
:10085E00F00CFF3E031D2D2C70087104031D1D2C82
:10086E007508F1007408F0000800F400F201F301BD
:10087E007208740784000A128A1103200A128A1160
:10088E00003A031908007208740784000A128A11CC
:10089E0003200A128A110A128A11F6230A128A11E9
:1008AE000130F2070318F30A0030F3073F2C0A1247
:1008BE008A11ED230A128A118316031391150A1257
:1008CE008A11ED230A128A11831203131308F20000
:1008DE00F3017208F4007308F5000A128A11ED2371
:1008EE000A128A1170037104031D812C83160313DF
:1008FE009112842C83160313911611167508F100AC
:10090E007408F0000800F600A52C7308803EF40071
:10091E007408F70077080A128A11B62408007308C3
:10092E00C03EF4007408F70077080A128A11B62444
:10093E00080080300A128A11B62408007608F400E6
:10094E00F5017508003A0319AD2CA02C7408013A74
:10095E0003198C2C033A0319962CA02C0800F200D4
:10096E008312031307100730F1007D30F000F00BF7
:10097E00BE2CF10BBE2C8312031387140730F1002B
:10098E007D30F000F00BC92CF10BC92C72088312CC
:10099E00031388000730F1007D30F000F00BD52CEA
:1009AE00F10BD52C8312031387100730F1007D3025
:1009BE00F000F00BE02CF10BE02C08002830831235
:1009CE0003139400831603139101831203132F084C
:1009DE00B3003008B4003108B5003208B60002305A
:1009EE000310B30DB40DB50DB60DFF3E031DF72C60
:1009FE003608F3003508F2003408F1003308F00031
:100A0E000030F7003D30F6000930F5000030F400FC
:100A1E000A128A111B257008FF3E831603139300DA
:100A2E0094018715071608000030FC000030FB000B
:100A3E000030FA000030F90073087204710470047B
:100A4E000319702DFD01FD0AF31B3B2D0130F8003B
:100A5E000310F00DF10DF20DF30DF80B2F2D0130EB
:100A6E00F8007808FD072B2D0130F8000310F90D62
:100A7E00FA0DFB0DFC0DF80B3D2D73087702031DCF
:100A8E00522D72087602031D522D71087502031D38
:100A9E00522D70087402031C632D7008F402710845
:100AAE00031C710FF5027208031C720FF602730815
:100ABE00031C730FF702791401300310F30CF20CC0
:100ACE00F10CF00CFF3E031D642D0130FD02031DE1
:100ADE003B2D7C08F3007B08F2007A08F1007908C0
:100AEE00F0000800F200A02D30309C2D31309C2DEE
:100AFE0032309C2D33309C2D34309C2D35309C2D36
:100B0E0036309C2D37309C2D38309C2D39309C2D15
:100B1E0041309C2D42309C2D43309C2D44309C2DD9
:100B2E0045309C2D46309C2DD630F0007008F300D9
:100B3E00DA2D7208F000F1017108003A0319A82DA0
:100B4E009B2D7008003A03197B2D013A03197D2D58
:100B5E00033A03197F2D013A0319812D073A031920
:100B6E00832D013A0319852D033A0319872D013A76
:100B7E000319892D0F3A03198B2D013A03198D2D67
:100B8E00033A03198F2D013A0319912D073A0319D0
:100B9E00932D013A0319952D033A0319972D013A16
:100BAE000319992D9B2D730808001A30F400F830A4
:100BBE00F300F30BE02DF40BE02D000030300A12A1
:100BCE008A11B6240A128A110730F4007D30F30020
:100BDE00F30BEF2DF40BEF2D30300A128A11B624E1
:100BEE000A128A112130F300F30BFB2D30300A125A
:100BFE008A11B6240A128A112130F300F30B052E46
:100C0E0038300A128A11B6240A128A111130F300F2
:100C1E00F30B0F2E000008300A128A11B6240A12A6
:100C2E008A111130F300F30B1A2E000001300A1254
:100C3E008A11B6240A128A110430F400E430F3004B
:100C4E00F30B272EF40B272E000006300A128A1102
:100C5E00B6240A128A111130F300F30B342E000061
:100C6E000C300A128A11B6240A128A111130F300BE
:100C7E00F30B3F2E0000080083120313AF00303039
:100C8E0084000630FF0083138001840AFF0B4A2E76
:100C9E002F08F800F9017808F0007908F1007708BC
:100CAE00FA00FB017A08F2007B08F3000A128A119F
:100CBE001B240A128A11710883120313B7007008DD
:100CCE00B6007608F800F90179083702031D712E77
:100CDE0078083602031C832E3008013EB00031081E
:100CEE000318013E003EB10076083602B600370802
:100CFE00031C3703B700682E3708F1003608F000E2
:100D0E000A30F2000030F3000A128A111B240A1274
:100D1E008A11710883120313B7007008B6007608A3
:100D2E00F800F90179083702031D9F2E7808360264
:100D3E00031CB12E3208013EB20033080318013EE7
:100D4E00003EB30076083602B6003708031C3703A0
:100D5E00B700962E3708F1003608F0000A30F20080
:100D6E000030F3000A128A111B240A128A1171082C
:100D7E0083120313B7007008B6007608F800F90165
:100D8E0079083702031DCD2E78083602031CDF2E9C
:100D9E003408013EB40035080318013E003EB5008C
:100DAE0076083602B6003708031C3703B700C42E88
:100DBE0030300800831603138801071087100A12BB
:100DCE008A11DC250A128A110A128A1105240A12C6
:100DDE008A11F301F30A01300A128A118A240A12C7
:100DEE008A1101300A128A113C240A128A11063025
:100DFE0083120313B8003808F30002300A128A1166
:100E0E008A240A128A110A300A128A113C240A1202
:100E1E008A11003083120313B2000130B100863004
:100E2E00B000A030AF000A128A11E5240A128A110E
:100E3E000A128A11D7230A128A116130F00000308B
:100E4E00F1000A128A11E5230A128A110030F0000D
:100E5E00F1000A128A115E240A128A117008831296
:100E6E000313B8003808AE000A128A11DE230A12E4
:100E7E008A11413083120313B900ED30B800B80B5C
:100E8E00462FB90B462F4B2F0A128A11D7230A125F
:100E9E008A117130F0000030F1000A128A11E52338
:100EAE000A128A110030F000F1000A128A115E2433
:100EBE000A128A11700883120313B8003808AD00A5
:100ECE000A128A11DE230A128A1141308312031389
:100EDE00B900ED30B800B80B722FB90B722F772F07
:100EEE00FF3083120313B8003808F6000530B9003E
:100EFE003908F7002E080A128A1143260A128A119F
:100F0E0083120313BA003A08AC00F30102300A123E
:100F1E008A118A240A128A11831203132C08840060
:100F2E00831300080A128A1179250A128A110A12ED
:100F3E008A11F6230A128A112E300A128A11F6230A
:100F4E000A128A11831203132C08023E84008313A3
:100F5E0000080A128A1179250A128A110A128A11B8
:100F6E00F6230A128A11831203132C08043E8400FE
:100F7E00831300080A128A1179250A128A110A129D
:100F8E008A11F6230A128A1156300A128A11F62392
:100F9E000A128A11083083120313B8003808F300BE
:100FAE0002300A128A118A240A128A11831203133A
:100FBE002D080A128A1179250A128A110A128A112B
:100FCE00F6230A128A111F2F83120313A001A10107
:100FDE00A201A301A401A501A601A701A801A901CF
:100FEE00AA01AB01AC01AD01AE0183010A128A1157
:020FFE00E12EE2
:04400E00D4E0FFFFFC
:00000001FF
