:020000040000FA
:100000000A128A11F42F00308A000408840A820739
:100010000034763461346D346F346E346F3473343D
:10002000203470346534723472346F347334203455
:10003000753461342034753461342034753461345E
:080040002034753461340034F2
:100D6E0018300A128A112F270800F100831203137C
:100D7E0007147108880087140D30F000F00BC52E93
:100D8E00831203138710080000300A128A112F27CE
:100D9E000A128A1101300A128A112F270A128A1199
:100DAE000630F4003030F300F30BDB2EF40BDB2EA9
:100DBE0000000800F400F201F301720874078400C9
:100DCE000A128A1103200A128A11003A0319080026
:100DDE007208740784000A128A1103200A128A11FB
:100DEE000A128A11BC260A128A110130F207031860
:100DFE00F30A0030F307E42EF6001E2F7308803E30
:100E0E00F4007408F70077080A128A112F270800D9
:100E1E007308C03EF4007408F70077080A128A11AE
:100E2E002F27080080300A128A112F270800760813
:100E3E00F400F5017508003A0319262F192F7408CE
:100E4E00013A0319052F033A03190F2F192F080022
:100E5E00F2008312031307100730F1007D30F0000B
:100E6E00F00B372FF10B372F831203138714073034
:100E7E00F1007D30F000F00B422FF10B422F720883
:100E8E008312031388000730F1007D30F000F00B61
:100E9E004E2FF10B4E2F8312031387100730F100E4
:100EAE007D30F000F00B592FF10B592F08008316EF
:100EBE0003138801071087100A128A118D270A1250
:100ECE008A110A128A11CB260A128A11F3010130F5
:100EDE000A128A1103270A128A1101300A128A1184
:100EEE00E1260A128A110330FA008A30F9005530D1
:100EFE00F800F80B802FF90B802FFA0B802F872F1D
:100F0E000A128A11B7260A128A116D2F1A30F400AE
:100F1E00F830F300F30B912FF40B912F00003030CB
:100F2E000A128A112F270A128A110730F4007D3017
:100F3E00F300F30BA02FF40BA02F30300A128A11FE
:100F4E002F270A128A112130F300F30BAC2F303009
:100F5E000A128A112F270A128A112130F300F30B7D
:100F6E00B62F38300A128A112F270A128A11113021
:100F7E00F300F30BC02F000008300A128A112F273E
:100F8E000A128A111130F300F30BCB2F000001303F
:100F9E000A128A112F270A128A110430F400E43043
:100FAE00F300F30BD82FF40BD82F000006300A12E3
:100FBE008A112F270A128A111130F300F30BE52F35
:100FCE0000000C300A128A112F270A128A111130D2
:100FDE00F300F30BF02F0000080083120313A0019F
:100FEE00A101A201A301A401A50183010A128A1184
:020FFE005E2F64
:04400E00D4E0FFFFFC
:00000001FF
