:020000040000FA
:100000000A128A11EC2F00308A000408840A820741
:0A0010000034533431343A34003424
:10089C000A128A11642483160313111408000A1215
:1008AC008A11642483160313111508000A128A1185
:1008BC006424700883120313930008008316031337
:1008CC001419642C11081F3903190800642CF10049
:1008DC008312031307147108880087140D30F0007D
:1008EC00F00B762C831203138710080000300A12C9
:1008FC008A112D250A128A1101300A128A112D250E
:10090C000A128A110630F4003030F300F30B8C2CF1
:10091C00F40B8C2C00000800F401F501701C9C2CCD
:10092C007208F4070318F50A7308F5070130031071
:10093C00F20DF30DFF3E031D9D2C01300310F10C45
:10094C00F00CFF3E031DA42C70087104031D942CA5
:10095C007508F1007408F0000800F400F201F301CE
:10096C007208740784000A128A1103200A128A1171
:10097C00003A031908007208740784000A128A11DD
:10098C0003200A128A110A128A116D240A128A1182
:10099C000130F2070318F30A0030F307B62C0A12E1
:1009AC008A1164240A128A118316031391150A12F0
:1009BC008A1164240A128A11831203131308F20099
:1009CC00F3017208F4007308F5000A128A1164240A
:1009DC000A128A1170037104031DF82C8316031379
:1009EC009112FB2C83160313911611167508F10046
:1009FC007408F0000800F6001C2D7308803EF4000B
:100A0C007408F70077080A128A112D25080073085C
:100A1C00C03EF4007408F70077080A128A112D25DD
:100A2C00080080300A128A112D2508007608F4007F
:100A3C00F5017508003A0319242D172D7408013A95
:100A4C000319032D033A03190D2D172D0800F2007D
:100A5C008312031307100730F1007D30F000F00B08
:100A6C00352DF10B352D8312031387140730F1004C
:100A7C007D30F000F00B402DF10B402D72088312ED
:100A8C00031388000730F1007D30F000F00B4C2D83
:100A9C00F10B4C2D8312031387100730F1007D30BE
:100AAC00F000F00B572DF10B572D08002830831256
:100ABC0003139400831603139101831203132E085E
:100ACC00B2002F08B3003008B4003108B500023072
:100ADC000310B20DB30DB40DB50DFF3E031D6E2DFD
:100AEC003508F3003408F2003308F1003208F00046
:100AFC000030F7003D30F6000930F5000030F4000E
:100B0C000A128A11D7257008FF3E8316031393002F
:100B1C009401871507160800F200AD2D3030A92D71
:100B2C003130A92D3230A92D3330A92D3430A92DD7
:100B3C003530A92D3630A92D3730A92D3830A92DB7
:100B4C003930A92DD630F0007008F300D52D72087D
:100B5C00F000F1017108003A0319B52DA82D7008A9
:100B6C00003A0319942D013A0319962D033A0319EF
:100B7C00982D013A03199A2D073A03199C2D013A25
:100B8C0003199E2D033A0319A02D013A0319A22D26
:100B9C000F3A0319A42D013A0319A62DA82D730899
:100BAC0008000030FC000030FB000030FA00003080
:100BBC00F900730872047104700403192C2EFD01E2
:100BCC00FD0AF31BF72D0130F8000310F00DF10DA9
:100BDC00F20DF30DF80BEB2D0130F8007808FD0742
:100BEC00E72D0130F8000310F90DFA0DFB0DFC0D8B
:100BFC00F80BF92D73087702031D0E2E720876027E
:100C0C00031D0E2E71087502031D0E2E7008740242
:100C1C00031C1F2E7008F4027108031C710FF502DF
:100C2C007208031C720FF6027308031C730FF70291
:100C3C00791401300310F30CF20CF10CF00CFF3EA4
:100C4C00031D202E0130FD02031DF72D7C08F3003F
:100C5C007B08F2007A08F1007908F00008001A30DD
:100C6C00F400F830F300F30B392EF40B392E00009E
:100C7C0030300A128A112D250A128A110730F4001D
:100C8C007D30F300F30B482EF40B482E30300A1253
:100C9C008A112D250A128A112130F300F30B542EE0
:100CAC0030300A128A112D250A128A112130F300D4
:100CBC00F30B5E2E38300A128A112D250A128A1176
:100CCC001130F300F30B682E000008300A128A1161
:100CDC002D250A128A111130F300F30B732E00002C
:100CEC0001300A128A112D250A128A110430F400DF
:100CFC00E430F300F30B802EF40B802E0000063052
:100D0C000A128A112D250A128A111130F300F30BE5
:100D1C008D2E00000C300A128A112D250A128A1110
:100D2C001130F300F30B982E00000800831203130C
:100D3C00AE002F3084000630FF0083138001840A3C
:100D4C00FF0BA32E2E08F800F9017808F0007908A3
:100D5C00F1007708FA00FB017A08F2007B08F30037
:100D6C000A128A1192240A128A117108831203132F
:100D7C00B6007008B5007608F800F901790836025B
:100D8C00031DCA2E78083502031CDC2E2F08013EE9
:100D9C00AF0030080318013E003EB0007608350263
:100DAC00B5003608031C3603B600C12E3608F10018
:100DBC003508F0000A30F2000030F3000A128A11F4
:100DCC0092240A128A11710883120313B600700858
:100DDC00B5007608F800F90179083602031DF82EE3
:100DEC0078083502031C0A2F3108013EB100320885
:100DFC000318013E003EB20076083502B5003608F5
:100E0C00031C3603B600EF2E3608F1003508F0004F
:100E1C000A30F2000030F3000A128A1192240A12EE
:100E2C008A11710883120313B6007008B500760896
:100E3C00F800F90179083602031D262F78083502CF
:100E4C00031C382F3308013EB30034080318013E4D
:100E5C00003EB40076083502B5003608031C360394
:100E6C00B6001D2F2F3008008316031388010710BE
:100E7C0087100A128A1135260A128A110A128A114F
:100E8C007C240A128A11F301F30A01300A128A1126
:100E9C0001250A128A1101300A128A11B3240A128E
:100EAC008A11003083120313B1000130B000863078
:100EBC00AF00A030AE000A128A115C250A128A110A
:100ECC000A128A114E240A128A116130F000003085
:100EDC00F1000A128A115C240A128A110030F00007
:100EEC00F1000A128A11D5240A128A117008831291
:100EFC000313B7003708AD000A128A1155240A12E1
:100F0C008A11823083120313B800DD30B700B70B9F
:100F1C008D2FB80B8D2FFF3083120313B7003708BA
:100F2C00F6000530B8003808F7002D080A128A11AF
:100F3C009C260A128A1183120313B9003908AC00DB
:100F4C00F30102300A128A1101250A128A11831246
:100F5C0003132C088400831300080A128A119225AB
:100F6C000A128A110A128A116D240A128A112E3061
:100F7C000A128A116D240A128A11831203132C0887
:100F8C00023E8400831300080A128A1192250A1269
:100F9C008A110A128A116D240A128A118312031300
:100FAC002C08043E8400831300080A128A1192252F
:100FBC000A128A110A128A116D240A128A115630E9
:100FCC000A128A116D240A128A11662F83120313D6
:100FDC00A001A101A201A301A401A501A601A701E1
:100FEC00A801A901AA01AB01AC01AD0183010A1250
:040FFC008A113A2FED
:04400E00D4E0FFFFFC
:00000001FF
