:020000040000FA
:060000000A128A110C280F
:10000800FE00030EF1000A08F2000A128A11E02825
:100018000A128A110F28F801F901FA0183010A125C
:100028008A111F29F70030283F30831203139F05D8
:100038004F282928831203131F083F3980382E2898
:10004800C030831203139F044F28831203131F0821
:100058003F3940389F004F287708F500F6017608A9
:10006800003A0319382829287508013A031918286D
:10007800053A03191D280C3A03191E281C3A0319BE
:10008800242829284B28831603139F17AA28831688
:1000980003139F13AA287408F500F6017608003A9E
:1000A800031957284B287508483A03194628043A73
:1000B800031947284B280514831603170814C3305F
:1000C800831203139F05CC288514831603178814FD
:1000D800831203131F08C3390438A828051583168B
:1000E80003170815831203131F08C3390838A828F3
:1000F8008515831603178815852885168316031713
:100108000816831203131F08C3390C38A8280914CA
:10011800831603178816831203131F08C33914386C
:10012800A8288914831603170817831203131F08B6
:10013800C3391838A8280915831603178817831296
:1001480003131F08C3391C389F00CC287308F50017
:10015800F6017608003A0319B228CC287508003A47
:1001680003195F28013A03196828033A031972280A
:10017800013A03197C28073A03198128013A03191F
:100188008B28033A03199528013A03199F28CC288C
:1001980083121F140C13831603130C170B178B17DA
:1001A8002730F600F530F500F50BD828F60BD828DF
:1001B800831203139F140800831203130C1FEB28E8
:1001C800831603130C1FEB280C13F901F90A831289
:1001D8008C1D18291412141BF328941FFB281308CC
:1001E800F0007008F80014139413141616298316D7
:1001F8000313941E141D1629831203131308F00009
:100208007008F8008316031314107A088312031376
:10021800930014165330F000F00B102983160313C3
:100228001418122983128C1172088A00710E830027
:10023800FE0E7E0E0900073083120313A00020086B
:10024800F3004830A1002108F40004300A128A1192
:1002580016200A128A110A128A1166210A128A11B4
:1002680060300A128A114C210A128A117903031D7F
:100278003A29831203131E08A0002008FA000C1361
:10028800F901831603130C17831203139F143A29D9
:10029800F300730883160313930036308312031395
:1002A8009400803083160313940001309100871561
:1002B80007168B170B17831203138C11831603135E
:1002C8008C150800831203130C13831603130C17E1
:1002D8008B171A30F400F830F300F30B7129F40B84
:0C02E80071290000831203139F1408000A
:04400E00D4E0FFFFFC
:00000001FF
