:020000040000FA
:060000000A128A110C280F
:10000800FE00030EF1000A08F2000A128A11DE2827
:100018000A128A110F28FA0183010A128A11F32899
:10002800F7002E283F30831203139F054D282728F9
:10003800831203131F083F3980382C28C0308312DD
:1000480003139F044D28831203131F083F394038B8
:100058009F004D287708F500F6017608003A031945
:10006800362827287508013A03191628053A03196E
:100078001B280C3A03191C281C3A03192228272884
:100088004928831603139F17A828831603139F1361
:10009800A8287408F500F6017608003A03195528CF
:1000A80049287508483A03194428043A0319452889
:1000B80049280514831603170814C3308312031341
:1000C8009F05CA28851483160317881483120313FF
:1000D8001F08C3390438A628051583160317081501
:1000E800831203131F08C3390838A62885158316F9
:1000F8000317881583288516831603170816831295
:1001080003131F08C3390C38A628091483160317CC
:100118008816831203131F08C3391438A6288914B4
:10012800831603170817831203131F08C3391838D7
:10013800A6280915831603178817831203131F08A7
:10014800C3391C389F00CA287308F500F6017608E1
:10015800003A0319B028CA287508003A03195D281F
:10016800013A03196628033A03197028013A03195A
:100178007A28073A03197F28013A03198928033A8C
:1001880003199328013A03199D28CA2883121F14BA
:100198000C13831603130C170B178B172730F60055
:1001A800F530F500F50BD628F60BD6288312031385
:1001B8009F140800831603130C1FEC2883120313E3
:1001C8000C1FEC281E08F0007008FA000C139F148E
:1001D80072088A00710E8300FE0E7E0E0900073039
:1001E800F8007808F3004830F9007908F400043082
:1001F8000A128A1114200A128A110A128A11072176
:100208000A128A110629831203130C138316031387
:100218000C178B171A30F400F830F300F30B12297F
:0E022800F40B12290000831203139F14080028
:04400E00D4E0FFFFFC
:00000001FF
